{
  "_format": "hh-sol-artifact-1",
  "contractName": "Registry",
  "sourceName": "contracts/Registry.sol",
  "abi": [
    {
      "inputs": [
        {
          "internalType": "address",
          "name": "_admin",
          "type": "address"
        }
      ],
      "stateMutability": "nonpayable",
      "type": "constructor"
    },
    {
      "anonymous": false,
      "inputs": [
        {
          "indexed": true,
          "internalType": "uint256",
          "name": "profileId",
          "type": "uint256"
        },
        {
          "indexed": false,
          "internalType": "address",
          "name": "creator",
          "type": "address"
        }
      ],
      "name": "ProfileDeleted",
      "type": "event"
    },
    {
      "anonymous": false,
      "inputs": [
        {
          "indexed": true,
          "internalType": "uint256",
          "name": "profileId",
          "type": "uint256"
        },
        {
          "indexed": false,
          "internalType": "string",
          "name": "name",
          "type": "string"
        },
        {
          "indexed": false,
          "internalType": "string",
          "name": "message",
          "type": "string"
        },
        {
          "indexed": false,
          "internalType": "address",
          "name": "creator",
          "type": "address"
        }
      ],
      "name": "ProfileRegistered",
      "type": "event"
    },
    {
      "inputs": [],
      "name": "admin",
      "outputs": [
        {
          "internalType": "address",
          "name": "",
          "type": "address"
        }
      ],
      "stateMutability": "view",
      "type": "function"
    },
    {
      "inputs": [
        {
          "internalType": "string",
          "name": "_name",
          "type": "string"
        },
        {
          "internalType": "string",
          "name": "_message",
          "type": "string"
        }
      ],
      "name": "createRecord",
      "outputs": [],
      "stateMutability": "payable",
      "type": "function"
    },
    {
      "inputs": [
        {
          "internalType": "uint256",
          "name": "profileId",
          "type": "uint256"
        }
      ],
      "name": "deleteRecord",
      "outputs": [
        {
          "internalType": "bool",
          "name": "success",
          "type": "bool"
        }
      ],
      "stateMutability": "nonpayable",
      "type": "function"
    },
    {
      "inputs": [
        {
          "internalType": "uint256",
          "name": "profileId",
          "type": "uint256"
        }
      ],
      "name": "fetchRecord",
      "outputs": [
        {
          "components": [
            {
              "internalType": "uint256",
              "name": "profileId",
              "type": "uint256"
            },
            {
              "internalType": "string",
              "name": "name",
              "type": "string"
            },
            {
              "internalType": "string",
              "name": "message",
              "type": "string"
            },
            {
              "internalType": "address",
              "name": "creator",
              "type": "address"
            }
          ],
          "internalType": "struct Registry.Profile",
          "name": "",
          "type": "tuple"
        }
      ],
      "stateMutability": "view",
      "type": "function"
    },
    {
      "inputs": [],
      "name": "fetchRecords",
      "outputs": [
        {
          "components": [
            {
              "internalType": "uint256",
              "name": "profileId",
              "type": "uint256"
            },
            {
              "internalType": "string",
              "name": "name",
              "type": "string"
            },
            {
              "internalType": "string",
              "name": "message",
              "type": "string"
            },
            {
              "internalType": "address",
              "name": "creator",
              "type": "address"
            }
          ],
          "internalType": "struct Registry.Profile[]",
          "name": "",
          "type": "tuple[]"
        }
      ],
      "stateMutability": "view",
      "type": "function"
    },
    {
      "inputs": [
        {
          "internalType": "address",
          "name": "",
          "type": "address"
        }
      ],
      "name": "hasExistingProfile",
      "outputs": [
        {
          "internalType": "bool",
          "name": "",
          "type": "bool"
        }
      ],
      "stateMutability": "view",
      "type": "function"
    },
    {
      "inputs": [
        {
          "internalType": "uint256",
          "name": "_regFee",
          "type": "uint256"
        }
      ],
      "name": "setRegFee",
      "outputs": [],
      "stateMutability": "nonpayable",
      "type": "function"
    }
  ],
  "bytecode": "0x6080604052655af3107a40006005553480156200001b57600080fd5b506040516200185f3803806200185f8339818101604052810190620000419190620000a8565b600160008190555080600460006101000a81548173ffffffffffffffffffffffffffffffffffffffff021916908373ffffffffffffffffffffffffffffffffffffffff1602179055505062000122565b600081519050620000a28162000108565b92915050565b600060208284031215620000bb57600080fd5b6000620000cb8482850162000091565b91505092915050565b6000620000e182620000e8565b9050919050565b600073ffffffffffffffffffffffffffffffffffffffff82169050919050565b6200011381620000d4565b81146200011f57600080fd5b50565b61172d80620001326000396000f3fe6080604052600436106100705760003560e01c806394517df81161004e57806394517df81461011a578063c090b4df14610157578063e814db5914610173578063f851a4401461019c57610070565b8063061f9811146100755780632016a3fc146100b2578063940e9353146100dd575b600080fd5b34801561008157600080fd5b5061009c60048036038101906100979190610e62565b6101c7565b6040516100a99190611182565b60405180910390f35b3480156100be57600080fd5b506100c7610473565b6040516100d49190611160565b60405180910390f35b3480156100e957600080fd5b5061010460048036038101906100ff9190610dcd565b61072b565b6040516101119190611182565b60405180910390f35b34801561012657600080fd5b50610141600480360381019061013c9190610e62565b61074b565b60405161014e9190611282565b60405180910390f35b610171600480360381019061016c9190610df6565b610902565b005b34801561017f57600080fd5b5061019a60048036038101906101959190610e62565b610ada565b005b3480156101a857600080fd5b506101b1610b74565b6040516101be9190611145565b60405180910390f35b60003373ffffffffffffffffffffffffffffffffffffffff166007600084815260200190815260200160002060030160009054906101000a900473ffffffffffffffffffffffffffffffffffffffff1673ffffffffffffffffffffffffffffffffffffffff16148061028657503373ffffffffffffffffffffffffffffffffffffffff16600460009054906101000a900473ffffffffffffffffffffffffffffffffffffffff1673ffffffffffffffffffffffffffffffffffffffff16145b6102c5576040517f08c379a00000000000000000000000000000000000000000000000000000000081526004016102bc90611202565b60405180910390fd5b600073ffffffffffffffffffffffffffffffffffffffff166007600084815260200190815260200160002060030160009054906101000a900473ffffffffffffffffffffffffffffffffffffffff1673ffffffffffffffffffffffffffffffffffffffff16141561036b576040517f08c379a0000000000000000000000000000000000000000000000000000000008152600401610362906111e2565b60405180910390fd5b600760008381526020019081526020016000206000808201600090556001820160006103979190610c1a565b6002820160006103a79190610c1a565b6003820160006101000a81549073ffffffffffffffffffffffffffffffffffffffff021916905550506103da6002610b9a565b817f26cafee407ef0252dbfa31b688bdb8a20c47c70618552815b1a5f9aec0fafde23360405161040a9190611145565b60405180910390a26000600660003373ffffffffffffffffffffffffffffffffffffffff1673ffffffffffffffffffffffffffffffffffffffff16815260200190815260200160002060006101000a81548160ff02191690831515021790555060019050919050565b606060006104816002610bf6565b90506000808267ffffffffffffffff8111156104c6577f4e487b7100000000000000000000000000000000000000000000000000000000600052604160045260246000fd5b6040519080825280602002602001820160405280156104ff57816020015b6104ec610c5a565b8152602001906001900390816104e45790505b50905060005b83811015610721576007600060018361051e9190611360565b81526020019081526020016000206040518060800160405290816000820154815260200160018201805461055190611440565b80601f016020809104026020016040519081016040528092919081815260200182805461057d90611440565b80156105ca5780601f1061059f576101008083540402835291602001916105ca565b820191906000526020600020905b8154815290600101906020018083116105ad57829003601f168201915b505050505081526020016002820180546105e390611440565b80601f016020809104026020016040519081016040528092919081815260200182805461060f90611440565b801561065c5780601f106106315761010080835404028352916020019161065c565b820191906000526020600020905b81548152906001019060200180831161063f57829003601f168201915b505050505081526020016003820160009054906101000a900473ffffffffffffffffffffffffffffffffffffffff1673ffffffffffffffffffffffffffffffffffffffff1673ffffffffffffffffffffffffffffffffffffffff16815250508284815181106106f4577f4e487b7100000000000000000000000000000000000000000000000000000000600052603260045260246000fd5b602002602001018190525060018361070c9190611360565b92508080610719906114a3565b915050610505565b5080935050505090565b60066020528060005260406000206000915054906101000a900460ff1681565b610753610c5a565b6000600760008481526020019081526020016000206040518060800160405290816000820154815260200160018201805461078d90611440565b80601f01602080910402602001604051908101604052809291908181526020018280546107b990611440565b80156108065780601f106107db57610100808354040283529160200191610806565b820191906000526020600020905b8154815290600101906020018083116107e957829003601f168201915b5050505050815260200160028201805461081f90611440565b80601f016020809104026020016040519081016040528092919081815260200182805461084b90611440565b80156108985780601f1061086d57610100808354040283529160200191610898565b820191906000526020600020905b81548152906001019060200180831161087b57829003601f168201915b505050505081526020016003820160009054906101000a900473ffffffffffffffffffffffffffffffffffffffff1673ffffffffffffffffffffffffffffffffffffffff1673ffffffffffffffffffffffffffffffffffffffff1681525050905080915050919050565b600554341015610947576040517f08c379a000000000000000000000000000000000000000000000000000000000815260040161093e90611222565b60405180910390fd5b6109516002610c04565b61095b6001610c04565b60006109676001610bf6565b905060405180608001604052808281526020018481526020018381526020013373ffffffffffffffffffffffffffffffffffffffff16815250600760008381526020019081526020016000206000820151816000015560208201518160010190805190602001906109d9929190610c98565b5060408201518160020190805190602001906109f6929190610c98565b5060608201518160030160006101000a81548173ffffffffffffffffffffffffffffffffffffffff021916908373ffffffffffffffffffffffffffffffffffffffff1602179055509050506001600660003373ffffffffffffffffffffffffffffffffffffffff1673ffffffffffffffffffffffffffffffffffffffff16815260200190815260200160002060006101000a81548160ff021916908315150217905550807fb9978371fc41a4acc7b255c4a430144d80c1ab28496c7adca570c567e424daaa848433604051610acd9392919061119d565b60405180910390a2505050565b600460009054906101000a900473ffffffffffffffffffffffffffffffffffffffff1673ffffffffffffffffffffffffffffffffffffffff163373ffffffffffffffffffffffffffffffffffffffff1614610b6a576040517f08c379a0000000000000000000000000000000000000000000000000000000008152600401610b6190611262565b60405180910390fd5b8060058190555050565b600460009054906101000a900473ffffffffffffffffffffffffffffffffffffffff1681565b60008160000154905060008111610be6576040517f08c379a0000000000000000000000000000000000000000000000000000000008152600401610bdd90611242565b60405180910390fd5b6001810382600001819055505050565b600081600001549050919050565b6001816000016000828254019250508190555050565b508054610c2690611440565b6000825580601f10610c385750610c57565b601f016020900490600052602060002090810190610c569190610d1e565b5b50565b6040518060800160405280600081526020016060815260200160608152602001600073ffffffffffffffffffffffffffffffffffffffff1681525090565b828054610ca490611440565b90600052602060002090601f016020900481019282610cc65760008555610d0d565b82601f10610cdf57805160ff1916838001178555610d0d565b82800160010185558215610d0d579182015b82811115610d0c578251825591602001919060010190610cf1565b5b509050610d1a9190610d1e565b5090565b5b80821115610d37576000816000905550600101610d1f565b5090565b6000610d4e610d49846112c9565b6112a4565b905082815260208101848484011115610d6657600080fd5b610d718482856113fe565b509392505050565b600081359050610d88816116c9565b92915050565b600082601f830112610d9f57600080fd5b8135610daf848260208601610d3b565b91505092915050565b600081359050610dc7816116e0565b92915050565b600060208284031215610ddf57600080fd5b6000610ded84828501610d79565b91505092915050565b60008060408385031215610e0957600080fd5b600083013567ffffffffffffffff811115610e2357600080fd5b610e2f85828601610d8e565b925050602083013567ffffffffffffffff811115610e4c57600080fd5b610e5885828601610d8e565b9150509250929050565b600060208284031215610e7457600080fd5b6000610e8284828501610db8565b91505092915050565b6000610e978383611062565b905092915050565b610ea8816113b6565b82525050565b610eb7816113b6565b82525050565b6000610ec88261130a565b610ed2818561132d565b935083602082028501610ee4856112fa565b8060005b85811015610f205784840389528151610f018582610e8b565b9450610f0c83611320565b925060208a01995050600181019050610ee8565b50829750879550505050505092915050565b610f3b816113c8565b82525050565b6000610f4c82611315565b610f56818561133e565b9350610f6681856020860161140d565b610f6f81611579565b840191505092915050565b6000610f8582611315565b610f8f818561134f565b9350610f9f81856020860161140d565b610fa881611579565b840191505092915050565b6000610fc0601c8361134f565b9150610fcb8261158a565b602082019050919050565b6000610fe360358361134f565b9150610fee826115b3565b604082019050919050565b6000611006602c8361134f565b915061101182611602565b604082019050919050565b6000611029601b8361134f565b915061103482611651565b602082019050919050565b600061104c60238361134f565b91506110578261167a565b604082019050919050565b600060808301600083015161107a6000860182611136565b50602083015184820360208601526110928282610f41565b915050604083015184820360408601526110ac8282610f41565b91505060608301516110c16060860182610e9f565b508091505092915050565b60006080830160008301516110e46000860182611136565b50602083015184820360208601526110fc8282610f41565b915050604083015184820360408601526111168282610f41565b915050606083015161112b6060860182610e9f565b508091505092915050565b61113f816113f4565b82525050565b600060208201905061115a6000830184610eae565b92915050565b6000602082019050818103600083015261117a8184610ebd565b905092915050565b60006020820190506111976000830184610f32565b92915050565b600060608201905081810360008301526111b78186610f7a565b905081810360208301526111cb8185610f7a565b90506111da6040830184610eae565b949350505050565b600060208201905081810360008301526111fb81610fb3565b9050919050565b6000602082019050818103600083015261121b81610fd6565b9050919050565b6000602082019050818103600083015261123b81610ff9565b9050919050565b6000602082019050818103600083015261125b8161101c565b9050919050565b6000602082019050818103600083015261127b8161103f565b9050919050565b6000602082019050818103600083015261129c81846110cc565b905092915050565b60006112ae6112bf565b90506112ba8282611472565b919050565b6000604051905090565b600067ffffffffffffffff8211156112e4576112e361154a565b5b6112ed82611579565b9050602081019050919050565b6000819050602082019050919050565b600081519050919050565b600081519050919050565b6000602082019050919050565b600082825260208201905092915050565b600082825260208201905092915050565b600082825260208201905092915050565b600061136b826113f4565b9150611376836113f4565b9250827fffffffffffffffffffffffffffffffffffffffffffffffffffffffffffffffff038211156113ab576113aa6114ec565b5b828201905092915050565b60006113c1826113d4565b9050919050565b60008115159050919050565b600073ffffffffffffffffffffffffffffffffffffffff82169050919050565b6000819050919050565b82818337600083830152505050565b60005b8381101561142b578082015181840152602081019050611410565b8381111561143a576000848401525b50505050565b6000600282049050600182168061145857607f821691505b6020821081141561146c5761146b61151b565b5b50919050565b61147b82611579565b810181811067ffffffffffffffff8211171561149a5761149961154a565b5b80604052505050565b60006114ae826113f4565b91507fffffffffffffffffffffffffffffffffffffffffffffffffffffffffffffffff8214156114e1576114e06114ec565b5b600182019050919050565b7f4e487b7100000000000000000000000000000000000000000000000000000000600052601160045260246000fd5b7f4e487b7100000000000000000000000000000000000000000000000000000000600052602260045260246000fd5b7f4e487b7100000000000000000000000000000000000000000000000000000000600052604160045260246000fd5b6000601f19601f8301169050919050565b7f4572726f722c207265636f726420646f65736e27742065786973742e00000000600082015250565b7f4f6e6c79207265636f72642063726561746f72206f72207468652061646d696e60008201527f2063616e2064656c65746520612070726f66696c650000000000000000000000602082015250565b7f53657420726567697374726174696f6e2066656520746f2061206d696e696d7560008201527f6d20302e30303031204554480000000000000000000000000000000000000000602082015250565b7f436f756e7465723a2064656372656d656e74206f766572666c6f770000000000600082015250565b7f4f6e6c792061646d696e2063616e2073657420726567697374726174696f6e2060008201527f6665650000000000000000000000000000000000000000000000000000000000602082015250565b6116d2816113b6565b81146116dd57600080fd5b50565b6116e9816113f4565b81146116f457600080fd5b5056fea26469706673582212201132954f9b0b8230dd5b255e01fd0b4f023d6721eabbcbbeb15e5d414c4f3f8664736f6c63430008040033",
  "linkReferences": {},
  "deployedLinkReferences": {}
}