{
  "_format": "hh-sol-artifact-1",
  "contractName": "Registry",
  "sourceName": "contracts/Registry.sol",
  "abi": [
    {
      "inputs": [
        {
          "internalType": "address",
          "name": "_admin",
          "type": "address"
        }
      ],
      "stateMutability": "nonpayable",
      "type": "constructor"
    },
    {
      "anonymous": false,
      "inputs": [
        {
          "indexed": true,
          "internalType": "uint256",
          "name": "profileId",
          "type": "uint256"
        },
        {
          "indexed": false,
          "internalType": "address",
          "name": "creator",
          "type": "address"
        }
      ],
      "name": "ProfileDeleted",
      "type": "event"
    },
    {
      "anonymous": false,
      "inputs": [
        {
          "indexed": true,
          "internalType": "uint256",
          "name": "profileId",
          "type": "uint256"
        },
        {
          "indexed": false,
          "internalType": "string",
          "name": "firstName",
          "type": "string"
        },
        {
          "indexed": false,
          "internalType": "string",
          "name": "lastName",
          "type": "string"
        },
        {
          "indexed": false,
          "internalType": "address",
          "name": "creator",
          "type": "address"
        }
      ],
      "name": "ProfileRegistered",
      "type": "event"
    },
    {
      "inputs": [],
      "name": "admin",
      "outputs": [
        {
          "internalType": "address",
          "name": "",
          "type": "address"
        }
      ],
      "stateMutability": "view",
      "type": "function"
    },
    {
      "inputs": [
        {
          "internalType": "string",
          "name": "firstName",
          "type": "string"
        },
        {
          "internalType": "string",
          "name": "lastName",
          "type": "string"
        }
      ],
      "name": "createRecord",
      "outputs": [],
      "stateMutability": "payable",
      "type": "function"
    },
    {
      "inputs": [
        {
          "internalType": "uint256",
          "name": "profileId",
          "type": "uint256"
        }
      ],
      "name": "deleteRecord",
      "outputs": [
        {
          "internalType": "bool",
          "name": "success",
          "type": "bool"
        }
      ],
      "stateMutability": "nonpayable",
      "type": "function"
    },
    {
      "inputs": [
        {
          "internalType": "uint256",
          "name": "profileId",
          "type": "uint256"
        }
      ],
      "name": "fetchRecord",
      "outputs": [
        {
          "components": [
            {
              "internalType": "uint256",
              "name": "profileId",
              "type": "uint256"
            },
            {
              "internalType": "string",
              "name": "firstName",
              "type": "string"
            },
            {
              "internalType": "string",
              "name": "lastName",
              "type": "string"
            },
            {
              "internalType": "address",
              "name": "creator",
              "type": "address"
            }
          ],
          "internalType": "struct Registry.Profile",
          "name": "",
          "type": "tuple"
        }
      ],
      "stateMutability": "view",
      "type": "function"
    },
    {
      "inputs": [],
      "name": "fetchRecords",
      "outputs": [
        {
          "components": [
            {
              "internalType": "uint256",
              "name": "profileId",
              "type": "uint256"
            },
            {
              "internalType": "string",
              "name": "firstName",
              "type": "string"
            },
            {
              "internalType": "string",
              "name": "lastName",
              "type": "string"
            },
            {
              "internalType": "address",
              "name": "creator",
              "type": "address"
            }
          ],
          "internalType": "struct Registry.Profile[]",
          "name": "",
          "type": "tuple[]"
        }
      ],
      "stateMutability": "view",
      "type": "function"
    },
    {
      "inputs": [
        {
          "internalType": "address",
          "name": "",
          "type": "address"
        }
      ],
      "name": "hasExistingProfile",
      "outputs": [
        {
          "internalType": "bool",
          "name": "",
          "type": "bool"
        }
      ],
      "stateMutability": "view",
      "type": "function"
    }
  ],
  "bytecode": "0x6080604052662386f26fc100006005553480156200001c57600080fd5b5060405162001815380380620018158339818101604052810190620000429190620000a9565b600160008190555080600460006101000a81548173ffffffffffffffffffffffffffffffffffffffff021916908373ffffffffffffffffffffffffffffffffffffffff1602179055505062000123565b600081519050620000a38162000109565b92915050565b600060208284031215620000bc57600080fd5b6000620000cc8482850162000092565b91505092915050565b6000620000e282620000e9565b9050919050565b600073ffffffffffffffffffffffffffffffffffffffff82169050919050565b6200011481620000d5565b81146200012057600080fd5b50565b6116e280620001336000396000f3fe6080604052600436106100555760003560e01c8063061f98111461005a5780632016a3fc14610097578063940e9353146100c257806394517df8146100ff578063c090b4df1461013c578063f851a44014610158575b600080fd5b34801561006657600080fd5b50610081600480360381019061007c9190610e17565b610183565b60405161008e9190611137565b60405180910390f35b3480156100a357600080fd5b506100ac61042f565b6040516100b99190611115565b60405180910390f35b3480156100ce57600080fd5b506100e960048036038101906100e49190610d82565b6106e7565b6040516100f69190611137565b60405180910390f35b34801561010b57600080fd5b5061012660048036038101906101219190610e17565b610707565b6040516101339190611237565b60405180910390f35b61015660048036038101906101519190610dab565b6108be565b005b34801561016457600080fd5b5061016d610b29565b60405161017a91906110fa565b60405180910390f35b60003373ffffffffffffffffffffffffffffffffffffffff166007600084815260200190815260200160002060030160009054906101000a900473ffffffffffffffffffffffffffffffffffffffff1673ffffffffffffffffffffffffffffffffffffffff16148061024257503373ffffffffffffffffffffffffffffffffffffffff16600460009054906101000a900473ffffffffffffffffffffffffffffffffffffffff1673ffffffffffffffffffffffffffffffffffffffff16145b610281576040517f08c379a0000000000000000000000000000000000000000000000000000000008152600401610278906111d7565b60405180910390fd5b600073ffffffffffffffffffffffffffffffffffffffff166007600084815260200190815260200160002060030160009054906101000a900473ffffffffffffffffffffffffffffffffffffffff1673ffffffffffffffffffffffffffffffffffffffff161415610327576040517f08c379a000000000000000000000000000000000000000000000000000000000815260040161031e906111b7565b60405180910390fd5b600760008381526020019081526020016000206000808201600090556001820160006103539190610bcf565b6002820160006103639190610bcf565b6003820160006101000a81549073ffffffffffffffffffffffffffffffffffffffff021916905550506103966002610b4f565b817f26cafee407ef0252dbfa31b688bdb8a20c47c70618552815b1a5f9aec0fafde2336040516103c691906110fa565b60405180910390a26000600660003373ffffffffffffffffffffffffffffffffffffffff1673ffffffffffffffffffffffffffffffffffffffff16815260200190815260200160002060006101000a81548160ff02191690831515021790555060019050919050565b6060600061043d6002610bab565b90506000808267ffffffffffffffff811115610482577f4e487b7100000000000000000000000000000000000000000000000000000000600052604160045260246000fd5b6040519080825280602002602001820160405280156104bb57816020015b6104a8610c0f565b8152602001906001900390816104a05790505b50905060005b838110156106dd57600760006001836104da9190611315565b81526020019081526020016000206040518060800160405290816000820154815260200160018201805461050d906113f5565b80601f0160208091040260200160405190810160405280929190818152602001828054610539906113f5565b80156105865780601f1061055b57610100808354040283529160200191610586565b820191906000526020600020905b81548152906001019060200180831161056957829003601f168201915b5050505050815260200160028201805461059f906113f5565b80601f01602080910402602001604051908101604052809291908181526020018280546105cb906113f5565b80156106185780601f106105ed57610100808354040283529160200191610618565b820191906000526020600020905b8154815290600101906020018083116105fb57829003601f168201915b505050505081526020016003820160009054906101000a900473ffffffffffffffffffffffffffffffffffffffff1673ffffffffffffffffffffffffffffffffffffffff1673ffffffffffffffffffffffffffffffffffffffff16815250508284815181106106b0577f4e487b7100000000000000000000000000000000000000000000000000000000600052603260045260246000fd5b60200260200101819052506001836106c89190611315565b925080806106d590611458565b9150506104c1565b5080935050505090565b60066020528060005260406000206000915054906101000a900460ff1681565b61070f610c0f565b60006007600084815260200190815260200160002060405180608001604052908160008201548152602001600182018054610749906113f5565b80601f0160208091040260200160405190810160405280929190818152602001828054610775906113f5565b80156107c25780601f10610797576101008083540402835291602001916107c2565b820191906000526020600020905b8154815290600101906020018083116107a557829003601f168201915b505050505081526020016002820180546107db906113f5565b80601f0160208091040260200160405190810160405280929190818152602001828054610807906113f5565b80156108545780601f1061082957610100808354040283529160200191610854565b820191906000526020600020905b81548152906001019060200180831161083757829003601f168201915b505050505081526020016003820160009054906101000a900473ffffffffffffffffffffffffffffffffffffffff1673ffffffffffffffffffffffffffffffffffffffff1673ffffffffffffffffffffffffffffffffffffffff1681525050905080915050919050565b600554341015610903576040517f08c379a00000000000000000000000000000000000000000000000000000000081526004016108fa90611217565b60405180910390fd5b60001515600660003373ffffffffffffffffffffffffffffffffffffffff1673ffffffffffffffffffffffffffffffffffffffff16815260200190815260200160002060009054906101000a900460ff16151514610996576040517f08c379a000000000000000000000000000000000000000000000000000000000815260040161098d90611197565b60405180910390fd5b6109a06002610bb9565b6109aa6001610bb9565b60006109b66001610bab565b905060405180608001604052808281526020018481526020018381526020013373ffffffffffffffffffffffffffffffffffffffff1681525060076000838152602001908152602001600020600082015181600001556020820151816001019080519060200190610a28929190610c4d565b506040820151816002019080519060200190610a45929190610c4d565b5060608201518160030160006101000a81548173ffffffffffffffffffffffffffffffffffffffff021916908373ffffffffffffffffffffffffffffffffffffffff1602179055509050506001600660003373ffffffffffffffffffffffffffffffffffffffff1673ffffffffffffffffffffffffffffffffffffffff16815260200190815260200160002060006101000a81548160ff021916908315150217905550807fb9978371fc41a4acc7b255c4a430144d80c1ab28496c7adca570c567e424daaa848433604051610b1c93929190611152565b60405180910390a2505050565b600460009054906101000a900473ffffffffffffffffffffffffffffffffffffffff1681565b60008160000154905060008111610b9b576040517f08c379a0000000000000000000000000000000000000000000000000000000008152600401610b92906111f7565b60405180910390fd5b6001810382600001819055505050565b600081600001549050919050565b6001816000016000828254019250508190555050565b508054610bdb906113f5565b6000825580601f10610bed5750610c0c565b601f016020900490600052602060002090810190610c0b9190610cd3565b5b50565b6040518060800160405280600081526020016060815260200160608152602001600073ffffffffffffffffffffffffffffffffffffffff1681525090565b828054610c59906113f5565b90600052602060002090601f016020900481019282610c7b5760008555610cc2565b82601f10610c9457805160ff1916838001178555610cc2565b82800160010185558215610cc2579182015b82811115610cc1578251825591602001919060010190610ca6565b5b509050610ccf9190610cd3565b5090565b5b80821115610cec576000816000905550600101610cd4565b5090565b6000610d03610cfe8461127e565b611259565b905082815260208101848484011115610d1b57600080fd5b610d268482856113b3565b509392505050565b600081359050610d3d8161167e565b92915050565b600082601f830112610d5457600080fd5b8135610d64848260208601610cf0565b91505092915050565b600081359050610d7c81611695565b92915050565b600060208284031215610d9457600080fd5b6000610da284828501610d2e565b91505092915050565b60008060408385031215610dbe57600080fd5b600083013567ffffffffffffffff811115610dd857600080fd5b610de485828601610d43565b925050602083013567ffffffffffffffff811115610e0157600080fd5b610e0d85828601610d43565b9150509250929050565b600060208284031215610e2957600080fd5b6000610e3784828501610d6d565b91505092915050565b6000610e4c8383611017565b905092915050565b610e5d8161136b565b82525050565b610e6c8161136b565b82525050565b6000610e7d826112bf565b610e8781856112e2565b935083602082028501610e99856112af565b8060005b85811015610ed55784840389528151610eb68582610e40565b9450610ec1836112d5565b925060208a01995050600181019050610e9d565b50829750879550505050505092915050565b610ef08161137d565b82525050565b6000610f01826112ca565b610f0b81856112f3565b9350610f1b8185602086016113c2565b610f248161152e565b840191505092915050565b6000610f3a826112ca565b610f448185611304565b9350610f548185602086016113c2565b610f5d8161152e565b840191505092915050565b6000610f75603483611304565b9150610f808261153f565b604082019050919050565b6000610f98601c83611304565b9150610fa38261158e565b602082019050919050565b6000610fbb603583611304565b9150610fc6826115b7565b604082019050919050565b6000610fde601b83611304565b9150610fe982611606565b602082019050919050565b6000611001602a83611304565b915061100c8261162f565b604082019050919050565b600060808301600083015161102f60008601826110eb565b50602083015184820360208601526110478282610ef6565b915050604083015184820360408601526110618282610ef6565b91505060608301516110766060860182610e54565b508091505092915050565b600060808301600083015161109960008601826110eb565b50602083015184820360208601526110b18282610ef6565b915050604083015184820360408601526110cb8282610ef6565b91505060608301516110e06060860182610e54565b508091505092915050565b6110f4816113a9565b82525050565b600060208201905061110f6000830184610e63565b92915050565b6000602082019050818103600083015261112f8184610e72565b905092915050565b600060208201905061114c6000830184610ee7565b92915050565b6000606082019050818103600083015261116c8186610f2f565b905081810360208301526111808185610f2f565b905061118f6040830184610e63565b949350505050565b600060208201905081810360008301526111b081610f68565b9050919050565b600060208201905081810360008301526111d081610f8b565b9050919050565b600060208201905081810360008301526111f081610fae565b9050919050565b6000602082019050818103600083015261121081610fd1565b9050919050565b6000602082019050818103600083015261123081610ff4565b9050919050565b600060208201905081810360008301526112518184611081565b905092915050565b6000611263611274565b905061126f8282611427565b919050565b6000604051905090565b600067ffffffffffffffff821115611299576112986114ff565b5b6112a28261152e565b9050602081019050919050565b6000819050602082019050919050565b600081519050919050565b600081519050919050565b6000602082019050919050565b600082825260208201905092915050565b600082825260208201905092915050565b600082825260208201905092915050565b6000611320826113a9565b915061132b836113a9565b9250827fffffffffffffffffffffffffffffffffffffffffffffffffffffffffffffffff038211156113605761135f6114a1565b5b828201905092915050565b600061137682611389565b9050919050565b60008115159050919050565b600073ffffffffffffffffffffffffffffffffffffffff82169050919050565b6000819050919050565b82818337600083830152505050565b60005b838110156113e05780820151818401526020810190506113c5565b838111156113ef576000848401525b50505050565b6000600282049050600182168061140d57607f821691505b60208210811415611421576114206114d0565b5b50919050565b6114308261152e565b810181811067ffffffffffffffff8211171561144f5761144e6114ff565b5b80604052505050565b6000611463826113a9565b91507fffffffffffffffffffffffffffffffffffffffffffffffffffffffffffffffff821415611496576114956114a1565b5b600182019050919050565b7f4e487b7100000000000000000000000000000000000000000000000000000000600052601160045260246000fd5b7f4e487b7100000000000000000000000000000000000000000000000000000000600052602260045260246000fd5b7f4e487b7100000000000000000000000000000000000000000000000000000000600052604160045260246000fd5b6000601f19601f8301169050919050565b7f43616e6e6f7420637265617465206d756c7469706c65207265636f726473207760008201527f697468207468652073616d652061646472657373000000000000000000000000602082015250565b7f4572726f722c207265636f726420646f65736e27742065786973742e00000000600082015250565b7f4f6e6c79207265636f72642063726561746f72206f72207468652061646d696e60008201527f2063616e2064656c65746520612070726f66696c650000000000000000000000602082015250565b7f436f756e7465723a2064656372656d656e74206f766572666c6f770000000000600082015250565b7f53657420726567697374726174696f6e2066656520746f2061206d696e696d7560008201527f6d20302e30312045544800000000000000000000000000000000000000000000602082015250565b6116878161136b565b811461169257600080fd5b50565b61169e816113a9565b81146116a957600080fd5b5056fea264697066735822122039b9cef8d37147e2c31de0dca68bc4a6056d667d597b65612a1ae9f9082c347c64736f6c63430008040033",
  "linkReferences": {},
  "deployedLinkReferences": {}
}